{
  "contractName": "Dice",
  "abi": [
    {
      "anonymous": false,
      "inputs": [
        {
          "indexed": false,
          "internalType": "address",
          "name": "bidder",
          "type": "address"
        },
        {
          "indexed": false,
          "internalType": "uint8",
          "name": "currentBet",
          "type": "uint8"
        },
        {
          "indexed": false,
          "internalType": "uint256",
          "name": "destiny",
          "type": "uint256"
        }
      ],
      "name": "GameResult",
      "type": "event"
    },
    {
      "anonymous": false,
      "inputs": [
        {
          "indexed": false,
          "internalType": "address",
          "name": "bidder",
          "type": "address"
        },
        {
          "indexed": false,
          "internalType": "uint8",
          "name": "currentBet",
          "type": "uint8"
        },
        {
          "indexed": false,
          "internalType": "uint256",
          "name": "amount",
          "type": "uint256"
        }
      ],
      "name": "NewBetIsSet",
      "type": "event"
    },
    {
      "stateMutability": "payable",
      "type": "fallback",
      "payable": true
    },
    {
      "stateMutability": "payable",
      "type": "receive",
      "payable": true
    },
    {
      "inputs": [],
      "name": "initialize",
      "outputs": [],
      "stateMutability": "nonpayable",
      "type": "function"
    },
    {
      "inputs": [],
      "name": "roll",
      "outputs": [],
      "stateMutability": "nonpayable",
      "type": "function"
    },
    {
      "inputs": [
        {
          "internalType": "uint8",
          "name": "betNumber",
          "type": "uint8"
        }
      ],
      "name": "getNewBet",
      "outputs": [
        {
          "internalType": "uint256",
          "name": "",
          "type": "uint256"
        }
      ],
      "stateMutability": "payable",
      "type": "function",
      "payable": true
    },
    {
      "inputs": [],
      "name": "isBetSet",
      "outputs": [
        {
          "internalType": "bool",
          "name": "",
          "type": "bool"
        }
      ],
      "stateMutability": "view",
      "type": "function",
      "constant": true
    },
    {
      "inputs": [
        {
          "internalType": "address",
          "name": "owner",
          "type": "address"
        }
      ],
      "name": "betOf",
      "outputs": [
        {
          "internalType": "uint256",
          "name": "",
          "type": "uint256"
        }
      ],
      "stateMutability": "view",
      "type": "function",
      "constant": true
    },
    {
      "inputs": [
        {
          "internalType": "uint256",
          "name": "amount",
          "type": "uint256"
        }
      ],
      "name": "withdraw",
      "outputs": [],
      "stateMutability": "nonpayable",
      "type": "function"
    }
  ],
  "bytecode": "0x608060405234801561001057600080fd5b50610fc4806100206000396000f3fe6080604052600436106100595760003560e01c80631ae651c8146100625780632e1a7d4d1461008d5780634288d759146100b657806349898033146100f35780638129fc1c14610123578063cd5e3c5d1461013a57610060565b3661006057005b005b34801561006e57600080fd5b50610077610151565b6040516100849190610a93565b60405180910390f35b34801561009957600080fd5b506100b460048036038101906100af9190610ae9565b6101a8565b005b3480156100c257600080fd5b506100dd60048036038101906100d89190610b74565b61026e565b6040516100ea9190610bb0565b60405180910390f35b61010d60048036038101906101089190610c04565b61032a565b60405161011a9190610bb0565b60405180910390f35b34801561012f57600080fd5b50610138610529565b005b34801561014657600080fd5b5061014f61064e565b005b6000600160003373ffffffffffffffffffffffffffffffffffffffff1673ffffffffffffffffffffffffffffffffffffffff16815260200190815260200160002060000160019054906101000a900460ff16905090565b600060029054906101000a900473ffffffffffffffffffffffffffffffffffffffff1673ffffffffffffffffffffffffffffffffffffffff163373ffffffffffffffffffffffffffffffffffffffff161461020257600080fd5b600060029054906101000a900473ffffffffffffffffffffffffffffffffffffffff1673ffffffffffffffffffffffffffffffffffffffff166108fc479081150290604051600060405180830381858888f1935050505015801561026a573d6000803e3d6000fd5b5050565b600060011515600160008473ffffffffffffffffffffffffffffffffffffffff1673ffffffffffffffffffffffffffffffffffffffff16815260200190815260200160002060000160019054906101000a900460ff161515146102d057600080fd5b600160008373ffffffffffffffffffffffffffffffffffffffff1673ffffffffffffffffffffffffffffffffffffffff16815260200190815260200160002060000160009054906101000a900460ff1660ff169050919050565b6000801515600160003373ffffffffffffffffffffffffffffffffffffffff1673ffffffffffffffffffffffffffffffffffffffff16815260200190815260200160002060000160019054906101000a900460ff1615151461038b57600080fd5b6001341161039857600080fd5b60018060003373ffffffffffffffffffffffffffffffffffffffff1673ffffffffffffffffffffffffffffffffffffffff16815260200190815260200160002060000160016101000a81548160ff02191690831515021790555081600160003373ffffffffffffffffffffffffffffffffffffffff1673ffffffffffffffffffffffffffffffffffffffff16815260200190815260200160002060000160006101000a81548160ff021916908360ff16021790555034600160003373ffffffffffffffffffffffffffffffffffffffff1673ffffffffffffffffffffffffffffffffffffffff168152602001908152602001600020600201819055507f72823fecf192d13b78176577c020e7fe8b3db95bcfedd65934ad4300132565c33383346040516104c793929190610c4f565b60405180910390a1600160003373ffffffffffffffffffffffffffffffffffffffff1673ffffffffffffffffffffffffffffffffffffffff16815260200190815260200160002060000160009054906101000a900460ff1660ff169050919050565b600060019054906101000a900460ff166105515760008054906101000a900460ff161561055a565b610559610957565b5b610599576040517f08c379a000000000000000000000000000000000000000000000000000000000815260040161059090610d09565b60405180910390fd5b60008060019054906101000a900460ff1615905080156105e9576001600060016101000a81548160ff02191690831515021790555060016000806101000a81548160ff0219169083151502179055505b33600060026101000a81548173ffffffffffffffffffffffffffffffffffffffff021916908373ffffffffffffffffffffffffffffffffffffffff160217905550801561064b5760008060016101000a81548160ff0219169083151502179055505b50565b60011515600160003373ffffffffffffffffffffffffffffffffffffffff1673ffffffffffffffffffffffffffffffffffffffff16815260200190815260200160002060000160019054906101000a900460ff161515146106ae57600080fd5b6000600160003373ffffffffffffffffffffffffffffffffffffffff1673ffffffffffffffffffffffffffffffffffffffff16815260200190815260200160002060000160016101000a81548160ff021916908315150217905550610711610968565b600160003373ffffffffffffffffffffffffffffffffffffffff1673ffffffffffffffffffffffffffffffffffffffff16815260200190815260200160002060010181905550600160003373ffffffffffffffffffffffffffffffffffffffff1673ffffffffffffffffffffffffffffffffffffffff16815260200190815260200160002060000160009054906101000a900460ff1660ff16600160003373ffffffffffffffffffffffffffffffffffffffff1673ffffffffffffffffffffffffffffffffffffffff168152602001908152602001600020600101541415610889573373ffffffffffffffffffffffffffffffffffffffff166108fc6005600160003373ffffffffffffffffffffffffffffffffffffffff1673ffffffffffffffffffffffffffffffffffffffff1681526020019081526020016000206002015461085c9190610d58565b9081150290604051600060405180830381858888f19350505050158015610887573d6000803e3d6000fd5b505b7fecf1ef4410041608c06bd1d088fcd4c6210ef0021d1c99becbe08a6a5120b0b133600160003373ffffffffffffffffffffffffffffffffffffffff1673ffffffffffffffffffffffffffffffffffffffff16815260200190815260200160002060000160009054906101000a900460ff16600160003373ffffffffffffffffffffffffffffffffffffffff1673ffffffffffffffffffffffffffffffffffffffff1681526020019081526020016000206001015460405161094d93929190610c4f565b60405180910390a1565b600061096230610a55565b15905090565b60008043423360405160200161097e9190610dfa565b6040516020818303038152906040528051906020012060001c6109a19190610e44565b4542416040516020016109b49190610eb0565b6040516020818303038152906040528051906020012060001c6109d79190610e44565b44426109e39190610ecb565b6109ed9190610ecb565b6109f79190610ecb565b610a019190610ecb565b610a0b9190610ecb565b604051602001610a1b9190610f42565b6040516020818303038152906040528051906020012060001c90506001600682610a459190610f5d565b610a4f9190610ecb565b91505090565b6000808273ffffffffffffffffffffffffffffffffffffffff163b119050919050565b60008115159050919050565b610a8d81610a78565b82525050565b6000602082019050610aa86000830184610a84565b92915050565b600080fd5b6000819050919050565b610ac681610ab3565b8114610ad157600080fd5b50565b600081359050610ae381610abd565b92915050565b600060208284031215610aff57610afe610aae565b5b6000610b0d84828501610ad4565b91505092915050565b600073ffffffffffffffffffffffffffffffffffffffff82169050919050565b6000610b4182610b16565b9050919050565b610b5181610b36565b8114610b5c57600080fd5b50565b600081359050610b6e81610b48565b92915050565b600060208284031215610b8a57610b89610aae565b5b6000610b9884828501610b5f565b91505092915050565b610baa81610ab3565b82525050565b6000602082019050610bc56000830184610ba1565b92915050565b600060ff82169050919050565b610be181610bcb565b8114610bec57600080fd5b50565b600081359050610bfe81610bd8565b92915050565b600060208284031215610c1a57610c19610aae565b5b6000610c2884828501610bef565b91505092915050565b610c3a81610b36565b82525050565b610c4981610bcb565b82525050565b6000606082019050610c646000830186610c31565b610c716020830185610c40565b610c7e6040830184610ba1565b949350505050565b600082825260208201905092915050565b7f496e697469616c697a61626c653a20636f6e747261637420697320616c72656160008201527f647920696e697469616c697a6564000000000000000000000000000000000000602082015250565b6000610cf3602e83610c86565b9150610cfe82610c97565b604082019050919050565b60006020820190508181036000830152610d2281610ce6565b9050919050565b7f4e487b7100000000000000000000000000000000000000000000000000000000600052601160045260246000fd5b6000610d6382610ab3565b9150610d6e83610ab3565b9250817fffffffffffffffffffffffffffffffffffffffffffffffffffffffffffffffff0483118215151615610da757610da6610d29565b5b828202905092915050565b60008160601b9050919050565b6000610dca82610db2565b9050919050565b6000610ddc82610dbf565b9050919050565b610df4610def82610b36565b610dd1565b82525050565b6000610e068284610de3565b60148201915081905092915050565b7f4e487b7100000000000000000000000000000000000000000000000000000000600052601260045260246000fd5b6000610e4f82610ab3565b9150610e5a83610ab3565b925082610e6a57610e69610e15565b5b828204905092915050565b6000610e8082610b16565b9050919050565b6000610e9282610dbf565b9050919050565b610eaa610ea582610e75565b610e87565b82525050565b6000610ebc8284610e99565b60148201915081905092915050565b6000610ed682610ab3565b9150610ee183610ab3565b9250827fffffffffffffffffffffffffffffffffffffffffffffffffffffffffffffffff03821115610f1657610f15610d29565b5b828201905092915050565b6000819050919050565b610f3c610f3782610ab3565b610f21565b82525050565b6000610f4e8284610f2b565b60208201915081905092915050565b6000610f6882610ab3565b9150610f7383610ab3565b925082610f8357610f82610e15565b5b82820690509291505056fea264697066735822122080dd26930b74781fcd3f1c822133fd4bbebcd20392f7f8808c39e0b5cfb2be3564736f6c63430008090033",
  "immutableReferences": {},
  "source": "// SPDX-License-Identifier: GPL-3.0\r\n\r\nimport \"@openzeppelin/contracts-upgradeable/proxy/utils/Initializable.sol\";\r\n\r\npragma solidity ^0.8.9;\r\n\r\ncontract Dice is Initializable{\r\n\r\n    address s_owner;\r\n\r\n    function initialize() public initializer{\r\n        s_owner = msg.sender;\r\n    }\r\n\r\n    struct Bet {\r\n        uint8 currentBet;\r\n        bool isBetSet;\r\n        uint256 destiny;\r\n        uint256 amount;\r\n    }\r\n\r\n    mapping(address => Bet) private bets;\r\n\r\n    event NewBetIsSet(address bidder, uint8 currentBet, uint256 amount);\r\n    event GameResult(address bidder, uint8 currentBet , uint256 destiny);\r\n\r\n    modifier onlyOwner() {\r\n        require(msg.sender == s_owner);\r\n        _;\r\n    }\r\n\r\n    function roll() public {\r\n        require(bets[msg.sender].isBetSet == true);\r\n        bets[msg.sender].isBetSet = false;\r\n        bets[msg.sender].destiny = random();\r\n        if(bets[msg.sender].destiny == bets[msg.sender].currentBet){\r\n            payable(msg.sender).transfer(bets[msg.sender].amount * 5);\r\n        }\r\n        emit GameResult(msg.sender, bets[msg.sender].currentBet, bets[msg.sender].destiny);\r\n    }\r\n\r\n    function random() internal view returns(uint256){\r\n        uint256 seed = uint256(keccak256(abi.encodePacked(\r\n            block.timestamp + block.difficulty +\r\n            ((uint256(keccak256(abi.encodePacked(block.coinbase)))) / (block.timestamp)) +\r\n            block.gaslimit + \r\n            ((uint256(keccak256(abi.encodePacked(msg.sender)))) / (block.timestamp)) +\r\n            block.number\r\n        )));\r\n\r\n        return (seed % 6) + 1;\r\n    }\r\n\r\n    function getNewBet(uint8 betNumber) public payable returns(uint256) {\r\n        require(bets[msg.sender].isBetSet == false);\r\n        require(msg.value > 1 wei);\r\n        bets[msg.sender].isBetSet = true;\r\n        bets[msg.sender].currentBet = betNumber;\r\n        bets[msg.sender].amount = msg.value;\r\n        emit NewBetIsSet(msg.sender, betNumber, msg.value);\r\n        return bets[msg.sender].currentBet;\r\n    }\r\n\r\n    function isBetSet() public view returns(bool) {\r\n        return bets[msg.sender].isBetSet;\r\n    }\r\n\r\n    function betOf(address owner) external view returns(uint256) {\r\n        require(bets[owner].isBetSet == true);\r\n        return bets[owner].currentBet;\r\n    }\r\n\r\n    function withdraw(uint256 amount) onlyOwner public {\r\n        payable(s_owner).transfer(address(this).balance);\r\n    }\r\n\r\n    receive() external payable {\r\n\r\n    }\r\n\r\n    fallback() external payable {\r\n\r\n    }\r\n}",
  "sourcePath": "C:/Users/s0935/OneDrive//gamble-game/contracts/Dice.sol",
  "compiler": {
    "name": "solc",
    "version": "0.8.9+commit.e5eed63a.Emscripten.clang"
  },
  "schemaVersion": "3.4.1",
  "updatedAt": "2022-03-31T18:31:15.439Z",
  "networkType": "ethereum",
  "devdoc": {
    "kind": "dev",
    "methods": {},
    "version": 1
  },
  "userdoc": {
    "kind": "user",
    "methods": {},
    "version": 1
  }
}